{
  "contractName": "Logic",
  "abi": [
    {
      "inputs": [],
      "payable": false,
      "stateMutability": "nonpayable",
      "type": "constructor"
    },
    {
      "anonymous": false,
      "inputs": [
        {
          "indexed": true,
          "name": "actor",
          "type": "address"
        },
        {
          "indexed": true,
          "name": "x",
          "type": "int256"
        },
        {
          "indexed": true,
          "name": "y",
          "type": "uint256"
        }
      ],
      "name": "madeAction",
      "type": "event"
    },
    {
      "anonymous": false,
      "inputs": [
        {
          "indexed": false,
          "name": "started",
          "type": "address"
        },
        {
          "indexed": false,
          "name": "player2",
          "type": "address"
        }
      ],
      "name": "startGame",
      "type": "event"
    },
    {
      "anonymous": false,
      "inputs": [
        {
          "indexed": true,
          "name": "acceptedWhom",
          "type": "address"
        },
        {
          "indexed": true,
          "name": "acceptor",
          "type": "address"
        }
      ],
      "name": "acceptGame",
      "type": "event"
    },
    {
      "anonymous": false,
      "inputs": [
        {
          "indexed": true,
          "name": "whoWasRejected",
          "type": "address"
        },
        {
          "indexed": true,
          "name": "whoRejected",
          "type": "address"
        }
      ],
      "name": "rejected",
      "type": "event"
    },
    {
      "anonymous": false,
      "inputs": [
        {
          "indexed": true,
          "name": "user",
          "type": "address"
        }
      ],
      "name": "stateChanged",
      "type": "event"
    },
    {
      "constant": true,
      "inputs": [],
      "name": "geAllowed",
      "outputs": [
        {
          "name": "",
          "type": "bool"
        }
      ],
      "payable": false,
      "stateMutability": "view",
      "type": "function"
    },
    {
      "constant": true,
      "inputs": [],
      "name": "getState",
      "outputs": [
        {
          "name": "",
          "type": "uint256"
        }
      ],
      "payable": false,
      "stateMutability": "view",
      "type": "function"
    },
    {
      "constant": true,
      "inputs": [],
      "name": "getWhichPlayerItIs",
      "outputs": [
        {
          "name": "",
          "type": "uint256"
        }
      ],
      "payable": false,
      "stateMutability": "view",
      "type": "function"
    },
    {
      "constant": true,
      "inputs": [],
      "name": "getOtherPlayer",
      "outputs": [
        {
          "name": "",
          "type": "address"
        }
      ],
      "payable": false,
      "stateMutability": "view",
      "type": "function"
    },
    {
      "constant": true,
      "inputs": [],
      "name": "getScoreTemp",
      "outputs": [
        {
          "name": "",
          "type": "uint256"
        }
      ],
      "payable": false,
      "stateMutability": "view",
      "type": "function"
    },
    {
      "constant": true,
      "inputs": [],
      "name": "getScoreFinal",
      "outputs": [
        {
          "name": "",
          "type": "uint256"
        }
      ],
      "payable": false,
      "stateMutability": "view",
      "type": "function"
    },
    {
      "constant": false,
      "inputs": [
        {
          "name": "_player2",
          "type": "address"
        }
      ],
      "name": "startGameFunc",
      "outputs": [
        {
          "name": "",
          "type": "bool"
        }
      ],
      "payable": false,
      "stateMutability": "nonpayable",
      "type": "function"
    },
    {
      "constant": false,
      "inputs": [
        {
          "name": "_player1",
          "type": "address"
        }
      ],
      "name": "accept",
      "outputs": [],
      "payable": false,
      "stateMutability": "nonpayable",
      "type": "function"
    },
    {
      "constant": false,
      "inputs": [
        {
          "name": "_player1",
          "type": "address"
        }
      ],
      "name": "reject",
      "outputs": [],
      "payable": false,
      "stateMutability": "nonpayable",
      "type": "function"
    },
    {
      "constant": true,
      "inputs": [],
      "name": "print",
      "outputs": [
        {
          "name": "",
          "type": "uint256[6][6]"
        }
      ],
      "payable": false,
      "stateMutability": "view",
      "type": "function"
    },
    {
      "constant": true,
      "inputs": [
        {
          "name": "y",
          "type": "uint256"
        }
      ],
      "name": "checkIfHasEmpty",
      "outputs": [
        {
          "name": "",
          "type": "bool"
        }
      ],
      "payable": false,
      "stateMutability": "view",
      "type": "function"
    },
    {
      "constant": false,
      "inputs": [
        {
          "name": "y",
          "type": "uint256"
        }
      ],
      "name": "noramlAction",
      "outputs": [],
      "payable": false,
      "stateMutability": "nonpayable",
      "type": "function"
    },
    {
      "constant": false,
      "inputs": [
        {
          "name": "x",
          "type": "int256"
        },
        {
          "name": "y",
          "type": "uint256"
        }
      ],
      "name": "useCheat",
      "outputs": [],
      "payable": false,
      "stateMutability": "nonpayable",
      "type": "function"
    },
    {
      "constant": false,
      "inputs": [],
      "name": "exit",
      "outputs": [],
      "payable": false,
      "stateMutability": "nonpayable",
      "type": "function"
    },
    {
      "constant": true,
      "inputs": [],
      "name": "endGame",
      "outputs": [
        {
          "name": "",
          "type": "bool"
        }
      ],
      "payable": false,
      "stateMutability": "view",
      "type": "function"
    }
  ],
  "bytecode": "0x6060604052341561000f57600080fd5b6125228061001e6000396000f3006060604052600436106100db576000357c0100000000000000000000000000000000000000000000000000000000900463ffffffff16806313bdfacd146100e05780631865c57d146101545780631c4437f51461017d5780634e43ee0c146101d25780635f06634d146101ff5780636cbc2ded1461022857806374b88e9b146102555780639f00592014610278578063a5dcaee5146102b1578063ab0da5a9146102ec578063ab33be4f14610325578063ba57dc7514610351578063c0945ed51461037a578063e29f7ca2146103a3578063e9fad8ee146103f4575b600080fd5b34156100eb57600080fd5b6100f3610409565b604051808260066000925b818410156101445782846020020151600660200280838360005b83811015610133578082015181840152602081019050610118565b5050505090500192600101926100fe565b9250505091505060405180910390f35b341561015f57600080fd5b6101676104cf565b6040518082815260200191505060405180910390f35b341561018857600080fd5b610190610516565b604051808273ffffffffffffffffffffffffffffffffffffffff1673ffffffffffffffffffffffffffffffffffffffff16815260200191505060405180910390f35b34156101dd57600080fd5b6101e561057d565b604051808215151515815260200191505060405180910390f35b341561020a57600080fd5b6102126105d1565b6040518082815260200191505060405180910390f35b341561023357600080fd5b61023b610618565b604051808215151515815260200191505060405180910390f35b341561026057600080fd5b6102766004808035906020019091905050610ba1565b005b341561028357600080fd5b6102af600480803573ffffffffffffffffffffffffffffffffffffffff169060200190919050506111ff565b005b34156102bc57600080fd5b6102d26004808035906020019091905050611655565b604051808215151515815260200191505060405180910390f35b34156102f757600080fd5b610323600480803573ffffffffffffffffffffffffffffffffffffffff1690602001909190505061174e565b005b341561033057600080fd5b61034f6004808035906020019091908035906020019091905050611861565b005b341561035c57600080fd5b610364611ef3565b6040518082815260200191505060405180910390f35b341561038557600080fd5b61038d611f39565b6040518082815260200191505060405180910390f35b34156103ae57600080fd5b6103da600480803573ffffffffffffffffffffffffffffffffffffffff16906020019091905050611f80565b604051808215151515815260200191505060405180910390f35b34156103ff57600080fd5b6104076122cf565b005b61041161249f565b6000600460003373ffffffffffffffffffffffffffffffffffffffff1673ffffffffffffffffffffffffffffffffffffffff168152602001908152602001600020905080600680602002604051908101604052809291906000905b828210156104c5578382600602016006806020026040519081016040528092919082600680156104b1576020028201915b81548152602001906001019080831161049d575b50505050508152602001906001019061046c565b5050505091505090565b6000600360003373ffffffffffffffffffffffffffffffffffffffff1673ffffffffffffffffffffffffffffffffffffffff16815260200190815260200160002054905090565b6000600660003373ffffffffffffffffffffffffffffffffffffffff1673ffffffffffffffffffffffffffffffffffffffff16815260200190815260200160002060009054906101000a900473ffffffffffffffffffffffffffffffffffffffff16905090565b6000600560003373ffffffffffffffffffffffffffffffffffffffff1673ffffffffffffffffffffffffffffffffffffffff16815260200190815260200160002060009054906101000a900460ff16905090565b6000600160003373ffffffffffffffffffffffffffffffffffffffff1673ffffffffffffffffffffffffffffffffffffffff16815260200190815260200160002054905090565b6000806000806000600760003373ffffffffffffffffffffffffffffffffffffffff1673ffffffffffffffffffffffffffffffffffffffff168152602001908152602001600020549350600460003373ffffffffffffffffffffffffffffffffffffffff1673ffffffffffffffffffffffffffffffffffffffff1681526020019081526020016000209250600091505b6006821015610b9557600090505b6006811015610b88576003821015156107ee5782600183036006811015156106da57fe5b60060201816006811015156106eb57fe5b015483836006811015156106fb57fe5b600602018260068110151561070c57fe5b01541480156107605750826002830360068110151561072757fe5b600602018160068110151561073857fe5b0154836001840360068110151561074b57fe5b600602018260068110151561075c57fe5b0154145b80156107b15750826003830360068110151561077857fe5b600602018160068110151561078957fe5b0154836002840360068110151561079c57fe5b60060201826006811015156107ad57fe5b0154145b80156107df57508383600184036006811015156107ca57fe5b60060201826006811015156107db57fe5b0154145b156107ed5760019450610b9a565b5b60028211151561091d57826001830160068110151561080957fe5b600602018160068110151561081a57fe5b0154838360068110151561082a57fe5b600602018260068110151561083b57fe5b015414801561088f5750826002830160068110151561085657fe5b600602018160068110151561086757fe5b0154836001840160068110151561087a57fe5b600602018260068110151561088b57fe5b0154145b80156108e0575082600383016006811015156108a757fe5b60060201816006811015156108b857fe5b015483600284016006811015156108cb57fe5b60060201826006811015156108dc57fe5b0154145b801561090e57508383600184016006811015156108f957fe5b600602018260068110151561090a57fe5b0154145b1561091c5760019450610b9a565b5b600381101515610a4c57828260068110151561093557fe5b600602016001820360068110151561094957fe5b0154838360068110151561095957fe5b600602018260068110151561096a57fe5b01541480156109be5750828260068110151561098257fe5b600602016002820360068110151561099657fe5b015483836006811015156109a657fe5b60060201600183036006811015156109ba57fe5b0154145b8015610a0f575082826006811015156109d357fe5b60060201600382036006811015156109e757fe5b015483836006811015156109f757fe5b6006020160028303600681101515610a0b57fe5b0154145b8015610a3d5750838383600681101515610a2557fe5b6006020160018303600681101515610a3957fe5b0154145b15610a4b5760019450610b9a565b5b600281111515610b7b578282600681101515610a6457fe5b6006020160018201600681101515610a7857fe5b01548383600681101515610a8857fe5b6006020182600681101515610a9957fe5b0154148015610aed57508282600681101515610ab157fe5b6006020160028201600681101515610ac557fe5b01548383600681101515610ad557fe5b6006020160018301600681101515610ae957fe5b0154145b8015610b3e57508282600681101515610b0257fe5b6006020160038201600681101515610b1657fe5b01548383600681101515610b2657fe5b6006020160028301600681101515610b3a57fe5b0154145b8015610b6c5750838383600681101515610b5457fe5b6006020160018301600681101515610b6857fe5b0154145b15610b7a5760019450610b9a565b5b80806001019150506106b6565b81806001019250506106a8565b600094505b5050505090565b600080600080600060018610158015610bbb575060068611155b1515610bc657600080fd5b600560003373ffffffffffffffffffffffffffffffffffffffff1673ffffffffffffffffffffffffffffffffffffffff16815260200190815260200160002060009054906101000a900460ff161515610c1e57600080fd5b610c2786611655565b1515610c3257600080fd5b600460003373ffffffffffffffffffffffffffffffffffffffff1673ffffffffffffffffffffffffffffffffffffffff168152602001908152602001600020945060046000600660003373ffffffffffffffffffffffffffffffffffffffff1673ffffffffffffffffffffffffffffffffffffffff16815260200190815260200160002060009054906101000a900473ffffffffffffffffffffffffffffffffffffffff1673ffffffffffffffffffffffffffffffffffffffff1673ffffffffffffffffffffffffffffffffffffffff1681526020019081526020016000209350600592505b600083101515610e3d5760008584600681101515610d3257fe5b6006020160018803600681101515610d4657fe5b01541415610e2157600760003373ffffffffffffffffffffffffffffffffffffffff1673ffffffffffffffffffffffffffffffffffffffff168152602001908152602001600020548584600681101515610d9c57fe5b6006020160018803600681101515610db057fe5b0181905550600760003373ffffffffffffffffffffffffffffffffffffffff1673ffffffffffffffffffffffffffffffffffffffff168152602001908152602001600020548484600681101515610e0357fe5b6006020160018803600681101515610e1757fe5b0181905550610e3d565b6000831415610e2f57610e3d565b828060019003935050610d18565b6000600560003373ffffffffffffffffffffffffffffffffffffffff1673ffffffffffffffffffffffffffffffffffffffff16815260200190815260200160002060006101000a81548160ff021916908315150217905550600160056000600660003373ffffffffffffffffffffffffffffffffffffffff1673ffffffffffffffffffffffffffffffffffffffff16815260200190815260200160002060009054906101000a900473ffffffffffffffffffffffffffffffffffffffff1673ffffffffffffffffffffffffffffffffffffffff1673ffffffffffffffffffffffffffffffffffffffff16815260200190815260200160002060006101000a81548160ff021916908315150217905550610f54610618565b15611112576000600360003373ffffffffffffffffffffffffffffffffffffffff1673ffffffffffffffffffffffffffffffffffffffff16815260200190815260200160002081905550600060036000600660003373ffffffffffffffffffffffffffffffffffffffff1673ffffffffffffffffffffffffffffffffffffffff16815260200190815260200160002060009054906101000a900473ffffffffffffffffffffffffffffffffffffffff1673ffffffffffffffffffffffffffffffffffffffff1673ffffffffffffffffffffffffffffffffffffffff1681526020019081526020016000208190555060056000803373ffffffffffffffffffffffffffffffffffffffff1673ffffffffffffffffffffffffffffffffffffffff16815260200190815260200160002060008282540192505081905550600091505b600682101561111157600090505b600681101561110457600085836006811015156110bb57fe5b60060201826006811015156110cc57fe5b0181905550600084836006811015156110e157fe5b60060201826006811015156110f257fe5b018190555080806001019150506110a2565b8180600101925050611094565b5b3373ffffffffffffffffffffffffffffffffffffffff167f622fa76e26ffd1ef0c4a75d0862142b0b2105b036e9fe17b00d1092ffdb2c37360405160405180910390a2600660003373ffffffffffffffffffffffffffffffffffffffff1673ffffffffffffffffffffffffffffffffffffffff16815260200190815260200160002060009054906101000a900473ffffffffffffffffffffffffffffffffffffffff1673ffffffffffffffffffffffffffffffffffffffff167f622fa76e26ffd1ef0c4a75d0862142b0b2105b036e9fe17b00d1092ffdb2c37360405160405180910390a2505050505050565b6000429050610e1081600260003373ffffffffffffffffffffffffffffffffffffffff1673ffffffffffffffffffffffffffffffffffffffff168152602001908152602001600020540311156113635780600260003373ffffffffffffffffffffffffffffffffffffffff1673ffffffffffffffffffffffffffffffffffffffff168152602001908152602001600020819055506000803373ffffffffffffffffffffffffffffffffffffffff1673ffffffffffffffffffffffffffffffffffffffff16815260200190815260200160002054600160003373ffffffffffffffffffffffffffffffffffffffff1673ffffffffffffffffffffffffffffffffffffffff1681526020019081526020016000206000828254019250508190555060008060003373ffffffffffffffffffffffffffffffffffffffff1673ffffffffffffffffffffffffffffffffffffffff168152602001908152602001600020819055505b6002600360003373ffffffffffffffffffffffffffffffffffffffff1673ffffffffffffffffffffffffffffffffffffffff168152602001908152602001600020819055506002600360008473ffffffffffffffffffffffffffffffffffffffff1673ffffffffffffffffffffffffffffffffffffffff168152602001908152602001600020819055506001600560008473ffffffffffffffffffffffffffffffffffffffff1673ffffffffffffffffffffffffffffffffffffffff16815260200190815260200160002060006101000a81548160ff02191690831515021790555033600660008473ffffffffffffffffffffffffffffffffffffffff1673ffffffffffffffffffffffffffffffffffffffff16815260200190815260200160002060006101000a81548173ffffffffffffffffffffffffffffffffffffffff021916908373ffffffffffffffffffffffffffffffffffffffff16021790555081600660003373ffffffffffffffffffffffffffffffffffffffff1673ffffffffffffffffffffffffffffffffffffffff16815260200190815260200160002060006101000a81548173ffffffffffffffffffffffffffffffffffffffff021916908373ffffffffffffffffffffffffffffffffffffffff1602179055506001600760008473ffffffffffffffffffffffffffffffffffffffff1673ffffffffffffffffffffffffffffffffffffffff168152602001908152602001600020819055506002600760003373ffffffffffffffffffffffffffffffffffffffff1673ffffffffffffffffffffffffffffffffffffffff168152602001908152602001600020819055508173ffffffffffffffffffffffffffffffffffffffff167f622fa76e26ffd1ef0c4a75d0862142b0b2105b036e9fe17b00d1092ffdb2c37360405160405180910390a23373ffffffffffffffffffffffffffffffffffffffff167f622fa76e26ffd1ef0c4a75d0862142b0b2105b036e9fe17b00d1092ffdb2c37360405160405180910390a25050565b600080600080600460003373ffffffffffffffffffffffffffffffffffffffff1673ffffffffffffffffffffffffffffffffffffffff1681526020019081526020016000209250600591505b6000821015156117415782826006811015156116b957fe5b60060201600186036006811015156116cd57fe5b01549050600081141561172557600760003373ffffffffffffffffffffffffffffffffffffffff1673ffffffffffffffffffffffffffffffffffffffff16815260200190815260200160002054905060019350611746565b600082141561173357611741565b8180600190039250506116a1565b600093505b505050919050565b6000600360003373ffffffffffffffffffffffffffffffffffffffff1673ffffffffffffffffffffffffffffffffffffffff168152602001908152602001600020819055506000600360008373ffffffffffffffffffffffffffffffffffffffff1673ffffffffffffffffffffffffffffffffffffffff168152602001908152602001600020819055503373ffffffffffffffffffffffffffffffffffffffff167f622fa76e26ffd1ef0c4a75d0862142b0b2105b036e9fe17b00d1092ffdb2c37360405160405180910390a28073ffffffffffffffffffffffffffffffffffffffff167f622fa76e26ffd1ef0c4a75d0862142b0b2105b036e9fe17b00d1092ffdb2c37360405160405180910390a250565b60008060008060018612158015611879575060068613155b151561188457600080fd5b60018510158015611896575060068511155b15156118a157600080fd5b600560003373ffffffffffffffffffffffffffffffffffffffff1673ffffffffffffffffffffffffffffffffffffffff16815260200190815260200160002060009054906101000a900460ff1615156118f957600080fd5b600a6000803373ffffffffffffffffffffffffffffffffffffffff1673ffffffffffffffffffffffffffffffffffffffff168152602001908152602001600020541015151561194757600080fd5b600460003373ffffffffffffffffffffffffffffffffffffffff1673ffffffffffffffffffffffffffffffffffffffff168152602001908152602001600020935060046000600660003373ffffffffffffffffffffffffffffffffffffffff1673ffffffffffffffffffffffffffffffffffffffff16815260200190815260200160002060009054906101000a900473ffffffffffffffffffffffffffffffffffffffff1673ffffffffffffffffffffffffffffffffffffffff1673ffffffffffffffffffffffffffffffffffffffff168152602001908152602001600020925060008460018803600681101515611a3b57fe5b6006020160018703600681101515611a4f57fe5b0154141515611a5d57600080fd5b600760003373ffffffffffffffffffffffffffffffffffffffff1673ffffffffffffffffffffffffffffffffffffffff168152602001908152602001600020548460018803600681101515611aae57fe5b6006020160018703600681101515611ac257fe5b0181905550600760003373ffffffffffffffffffffffffffffffffffffffff1673ffffffffffffffffffffffffffffffffffffffff168152602001908152602001600020548360018803600681101515611b1857fe5b6006020160018703600681101515611b2c57fe5b01819055506000600560003373ffffffffffffffffffffffffffffffffffffffff1673ffffffffffffffffffffffffffffffffffffffff16815260200190815260200160002060006101000a81548160ff021916908315150217905550600160056000600660003373ffffffffffffffffffffffffffffffffffffffff1673ffffffffffffffffffffffffffffffffffffffff16815260200190815260200160002060009054906101000a900473ffffffffffffffffffffffffffffffffffffffff1673ffffffffffffffffffffffffffffffffffffffff1673ffffffffffffffffffffffffffffffffffffffff16815260200190815260200160002060006101000a81548160ff021916908315150217905550611c48610618565b15611e06576000600360003373ffffffffffffffffffffffffffffffffffffffff1673ffffffffffffffffffffffffffffffffffffffff16815260200190815260200160002081905550600060036000600660003373ffffffffffffffffffffffffffffffffffffffff1673ffffffffffffffffffffffffffffffffffffffff16815260200190815260200160002060009054906101000a900473ffffffffffffffffffffffffffffffffffffffff1673ffffffffffffffffffffffffffffffffffffffff1673ffffffffffffffffffffffffffffffffffffffff1681526020019081526020016000208190555060056000803373ffffffffffffffffffffffffffffffffffffffff1673ffffffffffffffffffffffffffffffffffffffff16815260200190815260200160002060008282540192505081905550600091505b6006821015611e0557600090505b6006811015611df85760008483600681101515611daf57fe5b6006020182600681101515611dc057fe5b018190555060008383600681101515611dd557fe5b6006020182600681101515611de657fe5b01819055508080600101915050611d96565b8180600101925050611d88565b5b3373ffffffffffffffffffffffffffffffffffffffff167f622fa76e26ffd1ef0c4a75d0862142b0b2105b036e9fe17b00d1092ffdb2c37360405160405180910390a2600660003373ffffffffffffffffffffffffffffffffffffffff1673ffffffffffffffffffffffffffffffffffffffff16815260200190815260200160002060009054906101000a900473ffffffffffffffffffffffffffffffffffffffff1673ffffffffffffffffffffffffffffffffffffffff167f622fa76e26ffd1ef0c4a75d0862142b0b2105b036e9fe17b00d1092ffdb2c37360405160405180910390a2505050505050565b60008060003373ffffffffffffffffffffffffffffffffffffffff1673ffffffffffffffffffffffffffffffffffffffff16815260200190815260200160002054905090565b6000600760003373ffffffffffffffffffffffffffffffffffffffff1673ffffffffffffffffffffffffffffffffffffffff16815260200190815260200160002054905090565b6000806000600360008573ffffffffffffffffffffffffffffffffffffffff1673ffffffffffffffffffffffffffffffffffffffff16815260200190815260200160002054141515611fd557600091506122c9565b429050610e1081600260003373ffffffffffffffffffffffffffffffffffffffff1673ffffffffffffffffffffffffffffffffffffffff168152602001908152602001600020540311156121375780600260003373ffffffffffffffffffffffffffffffffffffffff1673ffffffffffffffffffffffffffffffffffffffff168152602001908152602001600020819055506000803373ffffffffffffffffffffffffffffffffffffffff1673ffffffffffffffffffffffffffffffffffffffff16815260200190815260200160002054600160003373ffffffffffffffffffffffffffffffffffffffff1673ffffffffffffffffffffffffffffffffffffffff1681526020019081526020016000206000828254019250508190555060008060003373ffffffffffffffffffffffffffffffffffffffff1673ffffffffffffffffffffffffffffffffffffffff168152602001908152602001600020819055505b6001600360003373ffffffffffffffffffffffffffffffffffffffff1673ffffffffffffffffffffffffffffffffffffffff1681526020019081526020016000208190555060038060008573ffffffffffffffffffffffffffffffffffffffff1673ffffffffffffffffffffffffffffffffffffffff1681526020019081526020016000208190555033600660008573ffffffffffffffffffffffffffffffffffffffff1673ffffffffffffffffffffffffffffffffffffffff16815260200190815260200160002060006101000a81548173ffffffffffffffffffffffffffffffffffffffff021916908373ffffffffffffffffffffffffffffffffffffffff1602179055503373ffffffffffffffffffffffffffffffffffffffff167f622fa76e26ffd1ef0c4a75d0862142b0b2105b036e9fe17b00d1092ffdb2c37360405160405180910390a28273ffffffffffffffffffffffffffffffffffffffff167f622fa76e26ffd1ef0c4a75d0862142b0b2105b036e9fe17b00d1092ffdb2c37360405160405180910390a2600191505b50919050565b6000600360003373ffffffffffffffffffffffffffffffffffffffff1673ffffffffffffffffffffffffffffffffffffffff16815260200190815260200160002081905550600060036000600660003373ffffffffffffffffffffffffffffffffffffffff1673ffffffffffffffffffffffffffffffffffffffff16815260200190815260200160002060009054906101000a900473ffffffffffffffffffffffffffffffffffffffff1673ffffffffffffffffffffffffffffffffffffffff1673ffffffffffffffffffffffffffffffffffffffff168152602001908152602001600020819055503373ffffffffffffffffffffffffffffffffffffffff167f622fa76e26ffd1ef0c4a75d0862142b0b2105b036e9fe17b00d1092ffdb2c37360405160405180910390a2600660003373ffffffffffffffffffffffffffffffffffffffff1673ffffffffffffffffffffffffffffffffffffffff16815260200190815260200160002060009054906101000a900473ffffffffffffffffffffffffffffffffffffffff1673ffffffffffffffffffffffffffffffffffffffff167f622fa76e26ffd1ef0c4a75d0862142b0b2105b036e9fe17b00d1092ffdb2c37360405160405180910390a2565b610480604051908101604052806006905b6124b86124ce565b8152602001906001900390816124b05790505090565b60c0604051908101604052806006905b60008152602001906001900390816124de57905050905600a165627a7a723058206b076f3eb2972f0af6b7e684cb3b091f8f0f5f52a8cc5fe47fcc0ed1f9f7c0130029",
  "source": "pragma solidity ^0.4.19;\r\n/**\r\n * The Logic contract does this and that...\r\n */\r\ncontract Logic {\r\n\r\n\r\n\r\n\r\n\t\r\n\r\n\tmapping (address => uint256) scoringBegining;\r\n\tmapping (address => uint256) scoreFinal;\r\n\tmapping (address => uint256) lastTime;\r\n\t\r\n\t\r\n\tmapping (address => uint256) state;\r\n\t// state == 0 idle , state == 1 waiting , state == 2 in game 3 if someOneHasAskedHim\r\n\tmapping (address=>uint256 [6][6]) gameState;\r\n    // \tat first I wanted map to be on the client side but that way there is no way of verifying the map :D\r\n    mapping (address=>bool) allowedToMakeAction;\r\n    mapping (address=>address) playingWithWho;\r\n    // if the player is not playing with anyone this will store who has asked you to play with them\r\n    \r\n    mapping(address=>uint256) whichPlayerItIs;\r\n    // we need this in order to know which player made which action\r\n\r\n\r\n\r\n\r\n\r\n\tevent madeAction(address indexed  actor, int256 indexed  x, uint256 indexed  y);\r\n\tevent startGame(address   started, address   player2);\r\n\t// the first arg in the next two events is that so there would be no confusion for players\r\n\tevent acceptGame(address indexed  acceptedWhom, address indexed  acceptor);\r\n\tevent rejected(address indexed  whoWasRejected, address indexed  whoRejected);\r\n\t\r\n\tevent stateChanged(address indexed user);\r\n\r\n\tfunction Logic () {\r\n\r\n\t}\r\n\t\r\n\t\r\n\tfunction geAllowed() constant returns (bool){\r\n\t    return allowedToMakeAction[msg.sender];\r\n\t}\r\n\r\n    function getState() constant returns(uint256) {\r\n        return state[msg.sender];\r\n    }\r\n    function getWhichPlayerItIs() constant returns (uint256) {\r\n    \treturn whichPlayerItIs[msg.sender];\r\n    }\r\n    function getOtherPlayer() constant returns(address){\r\n        return playingWithWho[msg.sender];\r\n    }\r\n    \r\n    \r\n    function getScoreTemp() public constant returns (uint256){\r\n        return scoringBegining[msg.sender];\r\n    }\r\n    \r\n    function getScoreFinal() public constant returns (uint256){\r\n        return scoreFinal[msg.sender];\r\n    }\r\n\r\n\tfunction startGameFunc (address _player2) public returns (bool) {\r\n\t\t\r\n\t\tif(state[_player2]!=0){\r\n\t\t    return false;\r\n\t\t}\r\n\t\t\r\n\t\tuint256 time = block.timestamp ; \r\n\t\tif(lastTime[msg.sender]-time>3600){\r\n\t\t\tlastTime[msg.sender] = time ;\r\n\t\t\tscoreFinal[msg.sender] += scoringBegining[msg.sender] ;\r\n\t\t\tscoringBegining[msg.sender] = 0 ;\r\n\t\t}\r\n\t\t\r\n\t\tstate[msg.sender]=1;\r\n\t\tstate[_player2]=3;\r\n\t\tplayingWithWho[_player2]=msg.sender;\r\n\r\n\t\t\r\n\t\tstateChanged(msg.sender);\r\n\t\tstateChanged(_player2);\r\n\t\t\r\n\r\n\t\treturn true;\r\n\t}\r\n\r\n\r\n\tfunction accept (address _player1) public {\r\n\t\tuint256 time = block.timestamp ; \r\n\t\tif(lastTime[msg.sender]-time>3600){\r\n\t\t\tlastTime[msg.sender] = time ;\r\n\t\t\tscoreFinal[msg.sender] += scoringBegining[msg.sender] ;\r\n\t\t\tscoringBegining[msg.sender] = 0 ;\r\n\t\t}\r\n\t\t\r\n\t\tstate[msg.sender]=2;\r\n\t\tstate[_player1]=2;\r\n\t\t\r\n\t\tallowedToMakeAction[_player1] = true;\r\n\t\t\r\n\t\tplayingWithWho[_player1] = msg.sender;\r\n\t\tplayingWithWho[msg.sender] = _player1;\r\n\t\t\r\n\t\t\r\n\t\twhichPlayerItIs[_player1]=1;\r\n\t\twhichPlayerItIs[msg.sender]=2;\r\n\t\t\r\n\t\tstateChanged(_player1);\r\n\t\tstateChanged(msg.sender);\r\n\r\n\t}\r\n\r\n\tfunction reject (address _player1) public {\r\n\r\n\r\n\t\tstate[msg.sender]=0;\r\n\t\tstate[_player1]=0;\r\n\r\n\t\tstateChanged(msg.sender);\r\n\t\tstateChanged(_player1);\r\n\t}\r\n\t\r\n\t\r\n\t\r\n    function print() constant returns(uint256 [6][6]){\r\n        uint256 [6][6] a=gameState[msg.sender];\r\n        return a;\r\n    }\r\n\r\n    // the next function is so we can use require and there won't be alot of loss on the gas\r\n    function checkIfHasEmpty(uint y) constant returns (bool){\r\n        uint256 [6][6] a=gameState[msg.sender];\r\n\t\t\r\n\t\tfor(uint256 i=5;i>=0;i--){\r\n\t\t    uint256 s = a[i][y-1];\r\n\t\t    if(s==0){\r\n\t\t        s = whichPlayerItIs[msg.sender];\r\n\t\t        return true;\r\n\t\t    }\r\n\t\t    \r\n\t\t    \r\n\t\t  // to end the loop no matter what :D\r\n\t\t    if(i==0){\r\n\t\t        break;\r\n\t\t    }\r\n\t\t}\r\n\t\t\r\n\t\treturn false;\r\n    }\r\n    \r\n    \r\n    \r\n    \r\n\tfunction noramlAction (uint y) public {\r\n\r\n\t\trequire (y>=1 && y <= 6);\r\n\t\t\r\n\t\trequire(allowedToMakeAction[msg.sender]);\r\n\t\t\r\n\t\t\r\n\t\trequire(checkIfHasEmpty(y));\r\n\t\t\r\n\t\tuint256 [6][6] a=gameState[msg.sender];\r\n\t\tuint256 [6][6] b=gameState[playingWithWho[msg.sender]];\r\n\t\t\r\n\t\tfor(uint256 i=5;i>=0;i--){\r\n\t\t    \r\n\t\t    if(a[i][y-1]==0){\r\n\t\t        \r\n\t\t        a[i][y-1] = whichPlayerItIs[msg.sender];\r\n                b[i][y-1] = whichPlayerItIs[msg.sender]; \r\n\t\t        \r\n\t\t        break;\r\n\t\t    }\r\n\t\t    \r\n\t\t    \r\n\t\t  // to end the loop no matter what :D\r\n\t\t    if(i==0){\r\n\t\t        break;\r\n\t\t    }\r\n\t\t}\r\n\t\t\r\n\t\tallowedToMakeAction[msg.sender] = false;\r\n\t\tallowedToMakeAction[playingWithWho[msg.sender]]=true;\r\n\t\t\r\n\t\t\r\n\t\tif(endGame()){\r\n\t\t    state[msg.sender]=0;\r\n\t\t    state[playingWithWho[msg.sender]]=0;\r\n\t\t    scoringBegining[msg.sender] += 5;\r\n\t\t    \r\n\t\t    for(uint i1=0;i1<6;i1++){\r\n\t\t        for(uint j1=0;j1<6;j1++){\r\n\t\t            a[i1][j1]=0;\r\n\t\t            b[i1][j1]=0;\r\n\t\t        }\r\n\t\t    }\r\n\t\t    \r\n\t\t}\r\n\t\t\r\n\t\tstateChanged(msg.sender);\r\n\t\tstateChanged(playingWithWho[msg.sender]);\r\n\t}\r\n\t\r\n\r\n\tfunction useCheat (int256 x, uint256 y)  public {\r\n\r\n\t\t// this was my first implimentation but I guess the other way would spend less gas\r\n\t\t// if(scoringBegining[msg.sender]>=10){\r\n\t\t// \tscoringBegining[msg.sender]-=10;\r\n\t\t// \tmadeAction(x,y);\r\n\t\t// \treturn true;\r\n\t\t// }\r\n\t\t// return false;\r\n\r\n\r\n\r\n\t\trequire (x>=1 && x<=6);\r\n\r\n\t\trequire (y>=1 && y<=6);\r\n\t\t\r\n\t\trequire (allowedToMakeAction[msg.sender]);\r\n\t\t\r\n\t\t\r\n\t\t\r\n\t\t\r\n\t\trequire (scoringBegining[msg.sender] >= 10);\r\n\t\t\r\n\t\tuint256[6][6] a =  gameState[msg.sender];\r\n\t\tuint256[6][6] b =  gameState[playingWithWho[msg.sender]];\r\n\t\trequire(a[uint256(x)-1][y-1]==0);\r\n\t\t\r\n\t\ta[uint256(x)-1][y-1] = whichPlayerItIs[msg.sender];\r\n\t\tb[uint256(x)-1][y-1] = whichPlayerItIs[msg.sender];\r\n\t\t\r\n\t\t\r\n\t\tallowedToMakeAction[msg.sender]=false;\r\n\t\tallowedToMakeAction[playingWithWho[msg.sender]]=true;\r\n\t\t\r\n\t\t\r\n\t\t\r\n\t\tif(endGame()){\r\n\t\t    state[msg.sender]=0;\r\n\t\t    state[playingWithWho[msg.sender]]=0;\r\n\t\t    scoringBegining[msg.sender] += 5;\r\n\t\t    for(uint i=0;i<6;i++){\r\n\t\t        for(uint j=0;j<6;j++){\r\n\t\t            a[i][j]=0;\r\n\t\t            b[i][j]=0;\r\n\t\t        }\r\n\t\t    }\r\n\t\t    \r\n\t\t}\r\n\t\t\r\n\t\tstateChanged(msg.sender);\r\n\t\tstateChanged(playingWithWho[msg.sender]);\r\n\t\t\r\n\r\n\t}\r\n\t\r\n\t\r\n\tfunction exit() public {\r\n\t    state[msg.sender]=0;\r\n\t    state[playingWithWho[msg.sender]]=0;\r\n\t    \r\n\t    stateChanged(msg.sender);\r\n\t\tstateChanged(playingWithWho[msg.sender]);\r\n\t}\r\n\t\r\n\t\r\n\tfunction endGame() constant public returns (bool) {\r\n\t    uint256 num = whichPlayerItIs[msg.sender];\r\n\t    uint256 [6][6] a = gameState[msg.sender];\r\n\t    for(uint i=0;i<6;i++){\r\n\t        for(uint j=0;j<6;j++){\r\n\t            \r\n\t            if(i>=3){\r\n\t                   if(a[i][j]==a[i-1][j]&&a[i-1][j]==a[i-2][j]&&a[i-2][j]==a[i-3][j]&&a[i-1][j]==num){\r\n\t                       return true;\r\n\t                   }\r\n\t            }\r\n\t            if(i<=2){\r\n\t                   if(a[i][j]==a[i+1][j]&&a[i+1][j]==a[i+2][j]&&a[i+2][j]==a[i+3][j]&&a[i+1][j]==num){\r\n\t                       return true;\r\n\t                   }\r\n\t            }\r\n\t            \r\n\t            \r\n\t            \r\n\t            \r\n\t            if(j>=3){\r\n\t                   if(a[i][j]==a[i][j-1]&&a[i][j-1]==a[i][j-2]&&a[i][j-2]==a[i][j-3]&&a[i][j-1]==num){\r\n\t                       return true;\r\n\t                   }\r\n\t            }\r\n\t            if(j<=2){\r\n\t                   if(a[i][j]==a[i][j+1]&&a[i][j+1]==a[i][j+2]&&a[i][j+2]==a[i][j+3]&&a[i][j+1]==num){\r\n\t                       return true;\r\n\t                   }\r\n\t            }\r\n\t            \r\n\t            \r\n\t            \r\n\t            \r\n\t        }\r\n\t    }\r\n\t\treturn false;\r\n\t}\r\n\t\r\n}\r\n",
  "sourcePath": "C:\\Users\\pooria\\Desktop\\connect_4_using_ethereum\\contracts\\Logic.sol",
  "compiler": {
    "name": "solc",
    "version": "0.4.21+commit.dfe3193c.Emscripten.clang"
  },
  "schemaVersion": "2.0.0",
  "updatedAt": "2018-04-21T20:34:18.535Z"
}